{
  "address": "0xb803c330fCEe3bD019e75F247A253Cad348278D8",
  "abi": [
    {
      "inputs": [
        {
          "internalType": "address",
          "name": "target",
          "type": "address"
        }
      ],
      "name": "AddressEmptyCode",
      "type": "error"
    },
    {
      "inputs": [
        {
          "internalType": "address",
          "name": "account",
          "type": "address"
        }
      ],
      "name": "AddressInsufficientBalance",
      "type": "error"
    },
    {
      "inputs": [],
      "name": "FailedInnerCall",
      "type": "error"
    },
    {
      "inputs": [],
      "name": "ReentrancyGuardReentrantCall",
      "type": "error"
    },
    {
      "inputs": [
        {
          "internalType": "address",
          "name": "token",
          "type": "address"
        }
      ],
      "name": "SafeERC20FailedOperation",
      "type": "error"
    },
    {
      "anonymous": false,
      "inputs": [
        {
          "indexed": true,
          "internalType": "uint256",
          "name": "roundId",
          "type": "uint256"
        },
        {
          "indexed": true,
          "internalType": "address",
          "name": "player",
          "type": "address"
        }
      ],
      "name": "PoolJoined",
      "type": "event"
    },
    {
      "anonymous": false,
      "inputs": [
        {
          "indexed": true,
          "internalType": "uint256",
          "name": "roundId",
          "type": "uint256"
        },
        {
          "indexed": false,
          "internalType": "address",
          "name": "winner",
          "type": "address"
        },
        {
          "indexed": false,
          "internalType": "uint256",
          "name": "amount",
          "type": "uint256"
        },
        {
          "indexed": false,
          "internalType": "address",
          "name": "token",
          "type": "address"
        }
      ],
      "name": "PrizeClaimed",
      "type": "event"
    },
    {
      "anonymous": false,
      "inputs": [
        {
          "indexed": true,
          "internalType": "uint256",
          "name": "roundId",
          "type": "uint256"
        },
        {
          "indexed": false,
          "internalType": "address",
          "name": "winner",
          "type": "address"
        }
      ],
      "name": "RoundClosed",
      "type": "event"
    },
    {
      "anonymous": false,
      "inputs": [
        {
          "indexed": true,
          "internalType": "uint256",
          "name": "roundId",
          "type": "uint256"
        },
        {
          "indexed": true,
          "internalType": "address",
          "name": "creator",
          "type": "address"
        },
        {
          "indexed": false,
          "internalType": "address",
          "name": "token",
          "type": "address"
        },
        {
          "indexed": false,
          "internalType": "uint256",
          "name": "entryFee",
          "type": "uint256"
        },
        {
          "indexed": false,
          "internalType": "uint256",
          "name": "maxParticipants",
          "type": "uint256"
        }
      ],
      "name": "RoundCreated",
      "type": "event"
    },
    {
      "anonymous": false,
      "inputs": [
        {
          "indexed": true,
          "internalType": "uint256",
          "name": "roundId",
          "type": "uint256"
        }
      ],
      "name": "RoundStarted",
      "type": "event"
    },
    {
      "inputs": [
        {
          "internalType": "uint256",
          "name": "roundId",
          "type": "uint256"
        }
      ],
      "name": "claimPrize",
      "outputs": [],
      "stateMutability": "nonpayable",
      "type": "function"
    },
    {
      "inputs": [
        {
          "internalType": "uint256",
          "name": "roundId",
          "type": "uint256"
        },
        {
          "internalType": "address",
          "name": "winner",
          "type": "address"
        }
      ],
      "name": "closeRound",
      "outputs": [],
      "stateMutability": "nonpayable",
      "type": "function"
    },
    {
      "inputs": [
        {
          "internalType": "address",
          "name": "_token",
          "type": "address"
        },
        {
          "internalType": "uint256",
          "name": "_entryFee",
          "type": "uint256"
        },
        {
          "internalType": "uint256",
          "name": "_maxParticipants",
          "type": "uint256"
        }
      ],
      "name": "createRound",
      "outputs": [
        {
          "internalType": "uint256",
          "name": "roundId",
          "type": "uint256"
        }
      ],
      "stateMutability": "nonpayable",
      "type": "function"
    },
    {
      "inputs": [
        {
          "internalType": "uint256",
          "name": "roundId",
          "type": "uint256"
        }
      ],
      "name": "getPlayers",
      "outputs": [
        {
          "internalType": "address[]",
          "name": "",
          "type": "address[]"
        }
      ],
      "stateMutability": "view",
      "type": "function"
    },
    {
      "inputs": [
        {
          "internalType": "uint256",
          "name": "roundId",
          "type": "uint256"
        }
      ],
      "name": "getRoundInfo",
      "outputs": [
        {
          "internalType": "address",
          "name": "owner",
          "type": "address"
        },
        {
          "internalType": "address",
          "name": "token",
          "type": "address"
        },
        {
          "internalType": "uint256",
          "name": "entryFee",
          "type": "uint256"
        },
        {
          "internalType": "uint256",
          "name": "maxParticipants",
          "type": "uint256"
        },
        {
          "internalType": "bool",
          "name": "open",
          "type": "bool"
        },
        {
          "internalType": "bool",
          "name": "started",
          "type": "bool"
        },
        {
          "internalType": "bool",
          "name": "finished",
          "type": "bool"
        },
        {
          "internalType": "uint256",
          "name": "numPlayers",
          "type": "uint256"
        },
        {
          "internalType": "address",
          "name": "winner",
          "type": "address"
        },
        {
          "internalType": "bool",
          "name": "prizeClaimed",
          "type": "bool"
        }
      ],
      "stateMutability": "view",
      "type": "function"
    },
    {
      "inputs": [
        {
          "internalType": "uint256",
          "name": "roundId",
          "type": "uint256"
        }
      ],
      "name": "joinPool",
      "outputs": [],
      "stateMutability": "nonpayable",
      "type": "function"
    },
    {
      "inputs": [],
      "name": "nextRoundId",
      "outputs": [
        {
          "internalType": "uint256",
          "name": "",
          "type": "uint256"
        }
      ],
      "stateMutability": "view",
      "type": "function"
    },
    {
      "inputs": [
        {
          "internalType": "uint256",
          "name": "roundId",
          "type": "uint256"
        }
      ],
      "name": "startRound",
      "outputs": [],
      "stateMutability": "nonpayable",
      "type": "function"
    },
    {
      "inputs": [
        {
          "internalType": "address",
          "name": "",
          "type": "address"
        }
      ],
      "name": "userOpenRound",
      "outputs": [
        {
          "internalType": "uint256",
          "name": "",
          "type": "uint256"
        }
      ],
      "stateMutability": "view",
      "type": "function"
    }
  ],
  "transactionHash": "0x426adea410a6e3d3017624dca35c808c035a6b3c4ab8d27c77e7b8a55eed8e1f",
  "args": [],
  "numDeployments": 1,
  "solcInputHash": "c956154c241af65e395c1361d5039879",
  "bytecode": "0x60806040526001805534801561001457600080fd5b5060016000556112f0806100296000396000f3fe608060405234801561001057600080fd5b50600436106100935760003560e01c806388c3ffb01161006657806388c3ffb0146100fc578063a702eb1b146101d7578063b23b57f8146101ea578063b7eef9ab146101fd578063d70981541461021d57600080fd5b806334e7a19f146100985780634002eda6146100ad578063460e2049146100c95780635fc3d52d146100e9575b600080fd5b6100ab6100a63660046110e0565b610230565b005b6100b660015481565b6040519081526020015b60405180910390f35b6100dc6100d73660046110e0565b6105fa565b6040516100c091906110f9565b6100ab6100f73660046110e0565b610669565b61017961010a3660046110e0565b600090815260026020819052604090912080546001820154928201546003830154600484015460058501546007909501546001600160a01b0394851697968516969395929460ff808416956101008504821695620100009095048216949392831692600160a01b900490911690565b604080516001600160a01b039b8c168152998b1660208b01528901979097526060880195909552921515608087015290151560a0860152151560c085015260e0840152909216610100820152901515610120820152610140016100c0565b6100b66101e5366004611162565b610835565b6100ab6101f8366004611195565b610a31565b6100b661020b3660046111c1565b60036020526000908152604090205481565b6100ab61022b3660046110e0565b610c9e565b610238610e75565b60008181526002602052604090205481906001600160a01b03166102775760405162461bcd60e51b815260040161026e906111dc565b60405180910390fd5b6000828152600260205260409020600481015460ff1680156102a357506004810154610100900460ff16155b80156102ba5750600481015462010000900460ff16155b6102fc5760405162461bcd60e51b81526020600482015260136024820152722537b4b710383430b9b2903737ba1037b832b760691b604482015260640161026e565b33600090815260068201602052604090205460ff161561034f5760405162461bcd60e51b815260206004820152600e60248201526d105b1c9958591e481a9bda5b995960921b604482015260640161026e565b60038101546005820154106103935760405162461bcd60e51b815260206004820152600a602482015269149bdd5b9908199d5b1b60b21b604482015260640161026e565b60028101546001820154604051636eb1769f60e11b81523360048201523060248201526001600160a01b039091169063dd62ed3e90604401602060405180830381865afa1580156103e8573d6000803e3d6000fd5b505050506040513d601f19601f8201168201806040525081019061040c919061120a565b10156104535760405162461bcd60e51b8152602060048201526016602482015275496e73756666696369656e7420616c6c6f77616e636560501b604482015260640161026e565b600281015460018201546040516370a0823160e01b81523360048201526001600160a01b03909116906370a0823190602401602060405180830381865afa1580156104a2573d6000803e3d6000fd5b505050506040513d601f19601f820116820180604052508101906104c6919061120a565b101561050b5760405162461bcd60e51b8152602060048201526014602482015273496e73756666696369656e742062616c616e636560601b604482015260640161026e565b6002810154600182015461052e916001600160a01b039091169033903090610e9f565b600581018054600181810183556000928352602080842090920180546001600160a01b03191633908117909155808452600685019092526040808420805460ff191690921790915551909185917f8d028106d3591842bc4c0d66d8c158ebdb5328cf938754a104db7bdff99a5d4c9190a360038101546005820154036105eb5760048101805461ff00191661010017905560405183907f33a701182892fd888ed152ca2ac23771a32e814469b7cd255965471e1af3a65990600090a25b50506105f76001600055565b50565b60008181526002602090815260409182902060050180548351818402810184019094528084526060939283018282801561065d57602002820191906000526020600020905b81546001600160a01b0316815260019091019060200180831161063f575b50505050509050919050565b60008181526002602052604090205481906001600160a01b031633146106c35760405162461bcd60e51b815260206004820152600f60248201526e2737ba103937bab7321037bbb732b960891b604482015260640161026e565b60008281526002602052604090205482906001600160a01b03166106f95760405162461bcd60e51b815260040161026e906111dc565b6000838152600260205260409020600481015460ff1661074c5760405162461bcd60e51b815260206004820152600e60248201526d2937bab732103737ba1037b832b760911b604482015260640161026e565b6004810154610100900460ff161561079e5760405162461bcd60e51b8152602060048201526015602482015274149bdd5b9908185b1c9958591e481cdd185c9d1959605a1b604482015260640161026e565b6005810154600211156107f35760405162461bcd60e51b815260206004820152601760248201527f4e6f7420656e6f756768207061727469636970616e7473000000000000000000604482015260640161026e565b60048101805461ff00191661010017905560405184907f33a701182892fd888ed152ca2ac23771a32e814469b7cd255965471e1af3a65990600090a250505050565b33600090815260036020526040812054156108925760405162461bcd60e51b815260206004820152601b60248201527f5573657220616c726561647920686173206f70656e20726f756e640000000000604482015260640161026e565b6001600160a01b0384166108d95760405162461bcd60e51b815260206004820152600e60248201526d151bdad95b881c995c5d5a5c995960921b604482015260640161026e565b600083116109195760405162461bcd60e51b815260206004820152600d60248201526c0456e74727920666565203e203609c1b604482015260640161026e565b600182116109695760405162461bcd60e51b815260206004820152601760248201527f4174206c656173742032207061727469636970616e7473000000000000000000604482015260640161026e565b6001805490600061097983611239565b90915550600081815260026020818152604080842080546001600160a01b0319908116339081178355600180840180546001600160a01b038f169416841790559583018b905560038084018b905560048401805462ffffff191690971790965580875294845294829020869055815194855291840188905283018690529293509083907f55423e0872ba440420be27f40f6543486c23c3fd4f4b8d0ddbac11b6dc81e0d59060600160405180910390a3509392505050565b60008281526002602052604090205482906001600160a01b03163314610a8b5760405162461bcd60e51b815260206004820152600f60248201526e2737ba103937bab7321037bbb732b960891b604482015260640161026e565b60008381526002602052604090205483906001600160a01b0316610ac15760405162461bcd60e51b815260040161026e906111dc565b60008481526002602052604090206004810154610100900460ff16610b1c5760405162461bcd60e51b8152602060048201526011602482015270149bdd5b99081b9bdd081cdd185c9d1959607a1b604482015260640161026e565b600481015462010000900460ff1615610b705760405162461bcd60e51b8152602060048201526016602482015275149bdd5b9908185b1c9958591e48199a5b9a5cda195960521b604482015260640161026e565b6001600160a01b038416610bb85760405162461bcd60e51b815260206004820152600f60248201526e15da5b9b995c881c995c5d5a5c9959608a1b604482015260640161026e565b6001600160a01b038416600090815260068201602052604090205460ff16610c1b5760405162461bcd60e51b815260206004820152601660248201527515da5b9b995c881b9bdd081c185c9d1a58da5c185b9d60521b604482015260640161026e565b60048101805462ff00ff1916620100001790556007810180546001600160a01b0386166001600160a01b0319909116811790915533600090815260036020908152604080832092909255905191825286917f2a0641ef71e80039cddc7522d6459d2caef71d8dd8651c053a2700f2ac176900910160405180910390a25050505050565b610ca6610e75565b60008181526002602052604090205481906001600160a01b0316610cdc5760405162461bcd60e51b815260040161026e906111dc565b6000828152600260205260409020600481015462010000900460ff16610d395760405162461bcd60e51b8152602060048201526012602482015271149bdd5b99081b9bdd08199a5b9a5cda195960721b604482015260640161026e565b60078101546001600160a01b03163314610d825760405162461bcd60e51b815260206004820152600a6024820152692737ba103bb4b73732b960b11b604482015260640161026e565b6007810154600160a01b900460ff1615610dd05760405162461bcd60e51b815260206004820152600f60248201526e105b1c9958591e4818db185a5b5959608a1b604482015260640161026e565b60028101546005820154600091610de691611252565b60078301805460ff60a01b1916600160a01b1790556001830154909150610e17906001600160a01b03163383610f0c565b600182015460408051338152602081018490526001600160a01b039092169082015284907fdb070d38d5c0cec0b4e07e1ed113bca6cae7bf48072980a45dd8922dbf2e56059060600160405180910390a25050506105f76001600055565b600260005403610e9857604051633ee5aeb560e01b815260040160405180910390fd5b6002600055565b6040516001600160a01b038481166024830152838116604483015260648201839052610f069186918216906323b872dd906084015b604051602081830303815290604052915060e01b6020820180516001600160e01b038381831617835250505050610f42565b50505050565b6040516001600160a01b03838116602483015260448201839052610f3d91859182169063a9059cbb90606401610ed4565b505050565b6000610f576001600160a01b03841683610fa5565b90508051600014158015610f7c575080806020019051810190610f7a9190611269565b155b15610f3d57604051635274afe760e01b81526001600160a01b038416600482015260240161026e565b6060610fb383836000610fbc565b90505b92915050565b606081471015610fe15760405163cd78605960e01b815230600482015260240161026e565b600080856001600160a01b03168486604051610ffd919061128b565b60006040518083038185875af1925050503d806000811461103a576040519150601f19603f3d011682016040523d82523d6000602084013e61103f565b606091505b509150915061104f86838361105b565b925050505b9392505050565b6060826110705761106b826110b7565b611054565b815115801561108757506001600160a01b0384163b155b156110b057604051639996b31560e01b81526001600160a01b038516600482015260240161026e565b5080611054565b8051156110c75780518082602001fd5b604051630a12f52160e11b815260040160405180910390fd5b6000602082840312156110f257600080fd5b5035919050565b6020808252825182820181905260009190848201906040850190845b8181101561113a5783516001600160a01b031683529284019291840191600101611115565b50909695505050505050565b80356001600160a01b038116811461115d57600080fd5b919050565b60008060006060848603121561117757600080fd5b61118084611146565b95602085013595506040909401359392505050565b600080604083850312156111a857600080fd5b823591506111b860208401611146565b90509250929050565b6000602082840312156111d357600080fd5b610fb382611146565b602080825260149082015273149bdd5b9908191bd95cc81b9bdd08195e1a5cdd60621b604082015260600190565b60006020828403121561121c57600080fd5b5051919050565b634e487b7160e01b600052601160045260246000fd5b60006001820161124b5761124b611223565b5060010190565b8082028115828204841417610fb657610fb6611223565b60006020828403121561127b57600080fd5b8151801515811461105457600080fd5b6000825160005b818110156112ac5760208186018101518583015201611292565b50600092019182525091905056fea26469706673582212204daff19219f5b2ed41fc4422618e5e354a40af1e0afc9e35478345278fb05d2664736f6c63430008140033",
  "devdoc": {
    "errors": {
      "AddressEmptyCode(address)": [
        {
          "details": "There's no code at `target` (it is not a contract)."
        }
      ],
      "AddressInsufficientBalance(address)": [
        {
          "details": "The ETH balance of the account is not enough to perform the operation."
        }
      ],
      "FailedInnerCall()": [
        {
          "details": "A call to an address target failed. The target may have reverted."
        }
      ],
      "ReentrancyGuardReentrantCall()": [
        {
          "details": "Unauthorized reentrant call."
        }
      ],
      "SafeERC20FailedOperation(address)": [
        {
          "details": "An operation with an ERC20 token failed."
        }
      ]
    },
    "kind": "dev",
    "methods": {},
    "version": 1
  },
  "userdoc": {
    "kind": "user",
    "methods": {},
    "version": 1
  },
  "storageLayout": {
    "storage": [
      {
        "astId": 667,
        "contract": "contracts/SE2Token.sol:ChartPredictionMultiPoolV1",
        "label": "_status",
        "offset": 0,
        "slot": "0",
        "type": "t_uint256"
      },
      {
        "astId": 766,
        "contract": "contracts/SE2Token.sol:ChartPredictionMultiPoolV1",
        "label": "nextRoundId",
        "offset": 0,
        "slot": "1",
        "type": "t_uint256"
      },
      {
        "astId": 771,
        "contract": "contracts/SE2Token.sol:ChartPredictionMultiPoolV1",
        "label": "rounds",
        "offset": 0,
        "slot": "2",
        "type": "t_mapping(t_uint256,t_struct(Round)763_storage)"
      },
      {
        "astId": 775,
        "contract": "contracts/SE2Token.sol:ChartPredictionMultiPoolV1",
        "label": "userOpenRound",
        "offset": 0,
        "slot": "3",
        "type": "t_mapping(t_address,t_uint256)"
      }
    ],
    "types": {
      "t_address": {
        "encoding": "inplace",
        "label": "address",
        "numberOfBytes": "20"
      },
      "t_array(t_address)dyn_storage": {
        "base": "t_address",
        "encoding": "dynamic_array",
        "label": "address[]",
        "numberOfBytes": "32"
      },
      "t_bool": {
        "encoding": "inplace",
        "label": "bool",
        "numberOfBytes": "1"
      },
      "t_contract(IERC20)77": {
        "encoding": "inplace",
        "label": "contract IERC20",
        "numberOfBytes": "20"
      },
      "t_mapping(t_address,t_bool)": {
        "encoding": "mapping",
        "key": "t_address",
        "label": "mapping(address => bool)",
        "numberOfBytes": "32",
        "value": "t_bool"
      },
      "t_mapping(t_address,t_uint256)": {
        "encoding": "mapping",
        "key": "t_address",
        "label": "mapping(address => uint256)",
        "numberOfBytes": "32",
        "value": "t_uint256"
      },
      "t_mapping(t_uint256,t_struct(Round)763_storage)": {
        "encoding": "mapping",
        "key": "t_uint256",
        "label": "mapping(uint256 => struct ChartPredictionMultiPoolV1.Round)",
        "numberOfBytes": "32",
        "value": "t_struct(Round)763_storage"
      },
      "t_struct(Round)763_storage": {
        "encoding": "inplace",
        "label": "struct ChartPredictionMultiPoolV1.Round",
        "members": [
          {
            "astId": 738,
            "contract": "contracts/SE2Token.sol:ChartPredictionMultiPoolV1",
            "label": "owner",
            "offset": 0,
            "slot": "0",
            "type": "t_address"
          },
          {
            "astId": 741,
            "contract": "contracts/SE2Token.sol:ChartPredictionMultiPoolV1",
            "label": "token",
            "offset": 0,
            "slot": "1",
            "type": "t_contract(IERC20)77"
          },
          {
            "astId": 743,
            "contract": "contracts/SE2Token.sol:ChartPredictionMultiPoolV1",
            "label": "entryFee",
            "offset": 0,
            "slot": "2",
            "type": "t_uint256"
          },
          {
            "astId": 745,
            "contract": "contracts/SE2Token.sol:ChartPredictionMultiPoolV1",
            "label": "maxParticipants",
            "offset": 0,
            "slot": "3",
            "type": "t_uint256"
          },
          {
            "astId": 747,
            "contract": "contracts/SE2Token.sol:ChartPredictionMultiPoolV1",
            "label": "open",
            "offset": 0,
            "slot": "4",
            "type": "t_bool"
          },
          {
            "astId": 749,
            "contract": "contracts/SE2Token.sol:ChartPredictionMultiPoolV1",
            "label": "started",
            "offset": 1,
            "slot": "4",
            "type": "t_bool"
          },
          {
            "astId": 751,
            "contract": "contracts/SE2Token.sol:ChartPredictionMultiPoolV1",
            "label": "finished",
            "offset": 2,
            "slot": "4",
            "type": "t_bool"
          },
          {
            "astId": 754,
            "contract": "contracts/SE2Token.sol:ChartPredictionMultiPoolV1",
            "label": "players",
            "offset": 0,
            "slot": "5",
            "type": "t_array(t_address)dyn_storage"
          },
          {
            "astId": 758,
            "contract": "contracts/SE2Token.sol:ChartPredictionMultiPoolV1",
            "label": "hasJoined",
            "offset": 0,
            "slot": "6",
            "type": "t_mapping(t_address,t_bool)"
          },
          {
            "astId": 760,
            "contract": "contracts/SE2Token.sol:ChartPredictionMultiPoolV1",
            "label": "winner",
            "offset": 0,
            "slot": "7",
            "type": "t_address"
          },
          {
            "astId": 762,
            "contract": "contracts/SE2Token.sol:ChartPredictionMultiPoolV1",
            "label": "prizeClaimed",
            "offset": 20,
            "slot": "7",
            "type": "t_bool"
          }
        ],
        "numberOfBytes": "256"
      },
      "t_uint256": {
        "encoding": "inplace",
        "label": "uint256",
        "numberOfBytes": "32"
      }
    }
  }
}